:100000000C942A000C943F000C943F000C943F0089
:100010000C943F000C943F000C943F000C943F0064
:100020000C943F000C943F000C943F000C943F0054
:100030000C943F000C943F000C943F000C943F0044
:100040000C943F000C943F000C943F000C943F0034
:100050000C943F0011241FBECFE5D8E0DEBFCDBF1A
:1000600015E0A0E6B0E0EAECFCE002C005900D92DD
:10007000A031B107D9F70E9457050C9463060C9480
:100080000000813059F0813018F08230A1F40DC0A9
:1000900080B58F7E80BD80B58F7D05C080B58F7E99
:1000A00080BD80B5806280BD089580B5806180BDCF
:1000B00080B5806280BD0895882319F0813041F4B5
:1000C00004C080B5877F80BD089580B5886080BDFD
:1000D0000895833039F480B5826080BD80B5846036
:1000E00080BD529808959C0189B98F3F910529F0F0
:1000F00020F080B58F7780BD30BD0895662319F05C
:10010000613021F402C0599801C0599A882319F02E
:10011000813041F404C080B58F7B80BD089580B5E7
:10012000806480BD089583E390E00E94730080B5F1
:10013000806880BD80E060E00E947E0083E00E94D5
:10014000690080E00E94410080E00E945C00539AB8
:10015000549A08955D9BFECF8CB908955F9BFECFA6
:100160008CB190E00895539A089553980895549A45
:100170000895549808950895089508950895089548
:10018000089583B7877F83BF83B78F7B83BF89B78A
:10019000816089BF12BE089589B7816089BF0895C3
:1001A00089B78E7F89BF089583B7887F83BF83B760
:1001B000846083BF089513BE089582BF08956D9A29
:1001C0006C9A6B986A98689A699870986E9A089574
:1001D000FB016115710539F07699FECF8FB9779BD8
:1001E000FECF8FB1808308956E9A08956E9808951A
:1001F0008FB780688FBF08958FB78F778FBF0895AF
:10020000813041F0813018F0823059F407C08BB74B
:10021000806402C08BB780688BBF08958BB7806203
:100220008BBF0895813041F0813018F0823059F44D
:1002300007C08BB78F7B02C08BB78F778BBF0895BA
:100240008BB78F7D8BBF0895813009F1813020F00D
:10025000823009F044C037C0613051F0613028F07D
:10026000623061F06330D9F50CC085B78E7F02C073
:1002700085B7816085BF85B78D7F23C085B78E7FA9
:1002800002C085B7816085BF85B782601AC06130C2
:1002900051F0613028F0623061F0633001F50CC03C
:1002A00085B78B7F02C085B7846085BF85B7877FA0
:1002B00008C085B78B7F02C085B7846085BF85B7CE
:1002C000886085BF0895623019F0633041F404C03E
:1002D00084B78F7B84BF089584B7806484BF0895FA
:1002E0004423C9F1413009F06EC0813099F081306A
:1002F00030F08230D1F0833009F065C021C02AB3DC
:1003000081E090E002C0880F991F6A95E2F7282BE0
:100310002ABB089527B381E090E002C0880F991F9F
:100320006A95E2F7282B27BB089524B381E090E07B
:1003300002C0880F991F6A95E2F7282B24BB089505
:1003400021B381E090E002C0880F991F6A95E2F71F
:10035000282B21BB0895813099F0813028F082301C
:10036000D9F0833081F524C02AB381E090E002C047
:10037000880F991F6A95E2F7809582238ABB0895BA
:1003800027B381E090E002C0880F991F6A95E2F7D9
:100390008095822387BB089524B381E090E002C05A
:1003A000880F991F6A95E2F78095822384BB089590
:1003B00021B381E090E002C0880F991F6A95E2F7AF
:1003C0008095822381BB08954423C9F1413009F00F
:1003D0006EC0813099F0813030F08230D1F08330BE
:1003E00009F065C021C02BB381E090E002C0880F06
:1003F000991F6A95E2F7282B2BBB089528B381E05B
:1004000090E002C0880F991F6A95E2F7282B28BB5D
:10041000089525B381E090E002C0880F991F6A9586
:10042000E2F7282B25BB089522B381E090E002C0BB
:10043000880F991F6A95E2F7282B22BB0895813017
:1004400099F0813028F08230D9F0833081F524C0D2
:100450002BB381E090E002C0880F991F6A95E2F704
:10046000809582238BBB089528B381E090E002C081
:10047000880F991F6A95E2F78095822388BB0895BB
:1004800025B381E090E002C0880F991F6A95E2F7DA
:100490008095822385BB089522B381E090E002C05D
:1004A000880F991F6A95E2F78095822382BB089591
:1004B000813091F0813028F08230C9F0833061F5CD
:1004C00021C02BB381E090E002C0880F991F6A958C
:1004D000E2F728272BBB089528B381E090E002C003
:1004E000880F991F6A95E2F7282728BB089525B33E
:1004F00081E090E002C0880F991F6A95E2F72827F3
:1005000025BB089522B381E090E002C0880F991FB7
:100510006A95E2F7282722BB08956623B9F0613077
:1005200029F5813051F0813028F0823049F0833054
:10053000E9F409C08FEF8ABB08958FEF87BB089558
:100540008FEF84BB08958FEF81BB0895813049F010
:10055000813028F0823039F0833041F406C01ABA75
:10056000089517BA089514BA089511BA08958130FC
:1005700049F0813028F0823039F0833041F406C0F0
:100580006BBB089568BB089565BB089562BB089571
:10059000813051F0813030F0823041F0833079F099
:1005A00080E0089589B303C086B301C083B390E0AF
:1005B00002C0959587956A95E2F78170089580B39A
:1005C00090E002C0959587956A95E2F7817008954D
:1005D00041E00E94E401089580E060E040E00E9474
:1005E000E401089580E060E041E00E94E4010895A4
:1005F00080E060E041E00E947001089580E064E0E6
:1006000040E00E94E401089580E064E041E00E943F
:10061000E401089580E064E041E00E9470010895E3
:1006200008950F931F93182F81E061E041E00E942D
:10063000E40181E062E040E00E94E40180E0612F9B
:100640000E94B70281E063E041E00E94E40100ED16
:1006500017E0C8010197F1F781E063E040E00E94F4
:10066000E401C8010197F1F71F910F910895CF930D
:10067000DF93EC0102C00E94110389918823D9F70E
:10068000DF91CF9108956F927F928F929F92AF9258
:10069000BF92CF92DF92EF92FF920F931F93DF935F
:1006A000CF93CDB7DEB72A970FB6F894DEBF0FBE53
:1006B000CDBF6B017C0197FD03C0662477240BC07E
:1006C000F094E094D094C094C11CD11CE11CF11CA6
:1006D00091E0692E712CAA24BB244E010894811C40
:1006E000911C84010A0D1B1DC701B6012AE030E0F0
:1006F00040E050E00E941D06605DF80160830894B0
:10070000A11CB11CC701B6012AE030E040E050E076
:100710000E941D06C901DA016C017D011C141D0433
:100720001E041F04F4F2F1E06F16710441F48A0C08
:100730009B1C8DE2F40180830894A11CB11C9501DF
:1007400036952795FE013196DE01AA0DBB1DAF013E
:100750002E0F3F1F05C090818C9181939C93119720
:10076000E217F307C1F7A40EB51EF5011082CA0106
:100770000E9437032A960FB6F894DEBF0FBECDBF96
:10078000CF91DF911F910F91FF90EF90DF90CF906D
:10079000BF90AF909F908F907F906F9008950F9330
:1007A0001F93182F81E061E040E00E94E40181E0A6
:1007B00062E040E00E94E40180E0612F0E94B70205
:1007C00081E063E041E00E94E40100ED17E0C80130
:1007D0000197F1F781E063E040E00E94E401C80185
:1007E0000197F1F71F910F910895813029F4862F19
:1007F00080580E94CF030895823021F4862F8054C0
:100800000E94CF03089581E00E94CF0380E797E123
:100810000197F1F708950F931F9380E061E00E9424
:100820008D0281E061E041E00E94700181E062E0C0
:1008300041E00E94700181E063E041E00E947001AC
:1008400080E69AEE0197F1F788E30E94CF0300ED6E
:1008500017E0C8010197F1F78FE00E94CF03C801AC
:100860000197F1F781E00E94CF0380E797E10197BC
:10087000F1F786E00E94CF031F910F9108957F92B8
:100880008F929F92AF92BF92CF92DF92EF92FF92A0
:100890000F931F93CF93DF9338E0832E31E0932E95
:1008A0002CE0A22E21E0B22E94E5792ECC24DD247A
:1008B000F4018081F501608140E00E94E401C0E123
:1008C000D1E004E111E088E1E82E81E0F82EEC0CA3
:1008D000FD1C8881F80160810E94C802882311F400
:1008E000F70170808881F80160810E94C802882326
:1008F000C9F321960F5F1F4F84E090E0E80EF91EC8
:1009000091E0C431D90729F7F40181914F01F50134
:1009100061915F0141E00E94E4010894C11CD11C77
:10092000F4E0CF16D10421F6872DDF91CF911F91EE
:100930000F91FF90EF90DF90CF90BF90AF909F907E
:100940008F907F90089581E064E041E00E94700103
:1009500081E065E041E00E94700181E066E041E0F5
:100960000E94700181E067E041E00E94700182E036
:1009700063E040E00E94700182E064E040E00E9499
:10098000700182E065E040E00E94700182E066E074
:1009900040E00E94700181E064E041E00E94E401D7
:1009A00081E065E041E00E94E40181E066E041E031
:1009B0000E94E40181E067E041E00E94E40182E0FE
:1009C00063E041E00E94E40182E064E041E00E94D3
:1009D000E40182E065E041E00E94E40182E066E03B
:1009E00041E00E94E401089580E062E040E00E945E
:1009F000E401089580E062E041E00E94E40108958E
:100A000080E062E041E00E94700108950E94AE0023
:100A1000089590E00E94AA000895EF92FF921F931C
:100A2000CF93DF93EC0110E088ECE82EF12C0BC0A3
:100A300090E00E94AA0088EE93E0F7013197F1F769
:100A40000197D9F71F5FFE01E10FF11D8081882317
:100A500079F7DF91CF911F91FF90EF9008950E9459
:100A6000930008950F931F93CF93DF93EC018901B7
:100A700016161706A4F4BA010E945A06009779F4D4
:100A8000CE01C296B8010E945A069C0190E0232B29
:100A900009F091E081E09827292F30E002C020E0A2
:100AA00030E0C901DF91CF911F910F9108956F92AE
:100AB0007F928F929F92AF92BF92CF92DF92EF92EE
:100AC000FF920F931F93DF93CF93CDB7DEB7EB97D2
:100AD0000FB6F894DEBF0FBECDBF0E9400050E9486
:100AE0000A030E94F8020E942F05DE019B96E9EDA1
:100AF000F0E081E101900D928150E1F7DE011D9659
:100B0000EAEEF0E08FE001900D928150E1F7DE0116
:100B10005C96E9EFF0E08FE001900D928150E1F7F3
:100B2000CE018B960E940D0533E0E32EF12C26E0DA
:100B3000C22ED12CCC0EDD1E9DE0892E912C8C0E68
:100B40009D1E5E010894A11CB11C8CE1682E712CC5
:100B50006C0E7D1E4CC00E940605F80181938F012A
:100B6000E815F905C1F7C4010E940D0585010E9431
:100B70000605F80181938F01EC15FD05C1F788E2A8
:100B800091E06AE070E0A60195010E943205892B90
:100B900029F180E690E00E940D050E94060586344A
:100BA00091F0873428F4843441F0853491F42EC0D8
:100BB0008B3461F08C3469F403C00E94F20214C0DB
:100BC0000E94EC0211C00E9404030EC00E94FE02AB
:100BD0000BC086EC90E00E940D0506C0C3010E9488
:100BE0000D050894E108F108E114F10411F0860103
:100BF000B2CF0E94FA048FEF9FEF28EC30E0F901AA
:100C00003197F1F70197D9F70E94F40480E090E062
:100C1000EB960FB6F894DEBF0FBECDBFCF91DF913C
:100C20001F910F91FF90EF90DF90CF90BF90AF900A
:100C30009F908F907F906F90089597FB092E0526C7
:100C40000ED057FD04D014D00AD0001C38F45095B3
:100C50004095309521953F4F4F4F5F4F0895F6F7E0
:100C600090958095709561957F4F8F4F9F4F089518
:100C7000A1E21A2EAA1BBB1BFD010DC0AA1FBB1FA0
:100C8000EE1FFF1FA217B307E407F50720F0A21B12
:100C9000B30BE40BF50B661F771F881F991F1A947F
:100CA00069F760957095809590959B01AC01BD01A9
:100CB000CF010895FB01DC018D9101908019011095
:0A0CC000D9F3990B0895F894FFCFC3
:100CCA005468697320497320596F75722063686F7D
:100CDA0069636573200A442D3E20546F206F706546
:100CEA006E20446F6F72200A4C2D3E20546F206391
:100CFA006C6F736520446F6F72200A462D3E205434
:100D0A006F206F6E204C6564200A4B2D3E20546F75
:100D1A00206F6666204C6564200A452D3E204C6F84
:100D2A0067204F757400456E746572207269676832
:100D3A00742063686F6963650048656C6C6F204551
:100D4A006E746572205573657200456E7465722003
:100D5A0050617373776F72640055736572204E6FBA
:100D6A007420466F756E64000101010104050607CF
:100D7A00020202020304050637383955343536446F
:100D8A003132332D63303D2B7573657231000000AB
:100D9A000000000000000000000000000000000049
:100DAA000000000000000000000000000000000039
:100DBA000000000000000000000070617373310041
:100DCA000000000000000000000000000000000019
:100DDA000000000000000000000000000000000009
:100DEA00000000000000000000000000757365723A
:100DFA0032000000000000000000000000000000B7
:100E0A0000000000000000000000000000000000D8
:100E1A0000000000000000000000000000007061F7
:100E2A0073733200000000000000000000000000A0
:100E3A0000000000000000000000000000000000A8
:100E4A000000000000000000000000000000000098
:100E5A007573657233000000000000000000000096
:100E6A000000000000000000000000000000000078
:100E7A000000000000000000000000000000000068
:100E8A00000070617373330000000000000000006E
:100E9A000000000000000000000000000000000048
:100EAA000000000000000000000000000000000038
:100EBA000000000075736572340000000000000035
:100ECA000000000000000000000000000000000018
:100EDA000000000000000000000000000000000008
:100EEA00000000000000706173733400000000000D
:100EFA0000000000000000000000000000000000E8
:100F0A0000000000000000000000000000000000D7
:100F1A0000000000000000007573657235000000D3
:100F2A0000000000000000000000000000000000B7
:100F3A0000000000000000000000000000000000A7
:100F4A0000000000000000000000706173733500AB
:100F5A000000000000000000000000000000000087
:100F6A000000000000000000000000000000000077
:100F7A0000000000000000000000000075736572A8
:100F8A003600000000000000000000000000000021
:100F9A000000000000000000000000000000000047
:100FAA000000000000000000000000000000706166
:100FBA00737336000000000000000000000000000B
:100FCA000000000000000000000000000000000017
:100FDA000000000000000000000000000000000007
:100FEA007573657237000000000000000000000001
:100FFA0000000000000000000000000000000000E7
:10100A0000000000000000000000000000000000D6
:10101A0000007061737337000000000000000000D8
:10102A0000000000000000000000000000000000B6
:10103A0000000000000000000000000000000000A6
:10104A00000000007573657238000000000000009F
:10105A000000000000000000000000000000000086
:10106A000000000000000000000000000000000076
:10107A000000000000007061737338000000000077
:10108A000000000000000000000000000000000056
:10109A000000000000000000000000000000000046
:1010AA00000000000000000075736572390000003E
:1010BA000000000000000000000000000000000026
:1010CA000000000000000000000000000000000016
:1010DA000000000000000000000070617373390016
:1010EA0000000000000000000000000000000000F6
:1010FA0000000000000000000000000000000000E6
:10110A000000000000000000000000007573657216
:10111A003130000000000000000000000000000064
:10112A0000000000000000000000000000000000B5
:10113A0000000000000000000000000000007061D4
:10114A00737331300000000000000000000000004E
:10115A000000000000000000000000000000000085
:10116A000000000000000000000000000000000075
:00000001FF
